{
  "abi": [
    {
      "inputs": [],
      "name": "AddressAlreadyWhitelisted",
      "type": "error"
    },
    {
      "inputs": [],
      "name": "AddressNotWhitelisted",
      "type": "error"
    },
    {
      "inputs": [],
      "name": "ContractAlreadyInitialized",
      "type": "error"
    },
    {
      "inputs": [],
      "name": "InvalidKeySupplied",
      "type": "error"
    },
    {
      "inputs": [],
      "name": "KeyNotDeposited",
      "type": "error"
    },
    {
      "inputs": [],
      "name": "NexusAddressNotFound",
      "type": "error"
    },
    {
      "inputs": [],
      "name": "NotCompatible",
      "type": "error"
    },
    {
      "inputs": [],
      "name": "NotNexusBot",
      "type": "error"
    },
    {
      "inputs": [],
      "name": "NotOwner",
      "type": "error"
    },
    {
      "inputs": [],
      "name": "RollupAlreadyPresent",
      "type": "error"
    },
    {
      "inputs": [],
      "name": "RollupAlreadyRegistered",
      "type": "error"
    },
    {
      "anonymous": false,
      "inputs": [
        {
          "indexed": false,
          "internalType": "uint64",
          "name": "clusterId",
          "type": "uint64"
        },
        {
          "indexed": false,
          "internalType": "uint64[]",
          "name": "operatorIds",
          "type": "uint64[]"
        }
      ],
      "name": "ClusterAdded",
      "type": "event"
    },
    {
      "anonymous": false,
      "inputs": [
        {
          "indexed": false,
          "internalType": "uint64",
          "name": "clusterId",
          "type": "uint64"
        },
        {
          "indexed": false,
          "internalType": "uint256",
          "name": "amount",
          "type": "uint256"
        }
      ],
      "name": "ClusterRecharged",
      "type": "event"
    },
    {
      "anonymous": false,
      "inputs": [
        {
          "indexed": false,
          "internalType": "address",
          "name": "oldOwner",
          "type": "address"
        },
        {
          "indexed": false,
          "internalType": "address",
          "name": "newOwner",
          "type": "address"
        }
      ],
      "name": "OwnerChanged",
      "type": "event"
    },
    {
      "anonymous": false,
      "inputs": [
        {
          "indexed": false,
          "internalType": "address",
          "name": "rollupAdmin",
          "type": "address"
        },
        {
          "indexed": false,
          "internalType": "address",
          "name": "withdrawalAddress",
          "type": "address"
        },
        {
          "indexed": false,
          "internalType": "uint16",
          "name": "stakingLimit",
          "type": "uint16"
        },
        {
          "indexed": false,
          "internalType": "uint32",
          "name": "operatorCluster",
          "type": "uint32"
        }
      ],
      "name": "RollupRegistered",
      "type": "event"
    },
    {
      "anonymous": false,
      "inputs": [
        {
          "indexed": false,
          "internalType": "address",
          "name": "admin",
          "type": "address"
        },
        {
          "indexed": false,
          "internalType": "uint256",
          "name": "amount",
          "type": "uint256"
        },
        {
          "indexed": false,
          "internalType": "bool",
          "name": "slashing",
          "type": "bool"
        }
      ],
      "name": "RollupRewardsUpdated",
      "type": "event"
    },
    {
      "anonymous": false,
      "inputs": [
        {
          "indexed": false,
          "internalType": "string",
          "name": "name",
          "type": "string"
        },
        {
          "indexed": false,
          "internalType": "address",
          "name": "rollupAddress",
          "type": "address"
        }
      ],
      "name": "RollupWhitelisted",
      "type": "event"
    },
    {
      "anonymous": false,
      "inputs": [
        {
          "indexed": false,
          "internalType": "address",
          "name": "sender",
          "type": "address"
        },
        {
          "indexed": false,
          "internalType": "uint256",
          "name": "amount",
          "type": "uint256"
        }
      ],
      "name": "SSVRecharged",
      "type": "event"
    },
    {
      "anonymous": false,
      "inputs": [
        {
          "indexed": false,
          "internalType": "address",
          "name": "rollupAdmin",
          "type": "address"
        },
        {
          "indexed": false,
          "internalType": "uint16",
          "name": "oldStakingLimit",
          "type": "uint16"
        },
        {
          "indexed": false,
          "internalType": "uint16",
          "name": "newStakingLimit",
          "type": "uint16"
        }
      ],
      "name": "StakingLimitChanged",
      "type": "event"
    },
    {
      "anonymous": false,
      "inputs": [
        {
          "indexed": false,
          "internalType": "address",
          "name": "admin",
          "type": "address"
        },
        {
          "indexed": false,
          "internalType": "bytes",
          "name": "pubKey",
          "type": "bytes"
        }
      ],
      "name": "ValidatorExited",
      "type": "event"
    },
    {
      "anonymous": false,
      "inputs": [
        {
          "indexed": false,
          "internalType": "bytes",
          "name": "pubKey",
          "type": "bytes"
        },
        {
          "indexed": false,
          "internalType": "address",
          "name": "rolupAdmin",
          "type": "address"
        },
        {
          "indexed": false,
          "internalType": "uint256",
          "name": "amount",
          "type": "uint256"
        }
      ],
      "name": "ValidatorShareSubmitted",
      "type": "event"
    },
    {
      "anonymous": false,
      "inputs": [
        {
          "indexed": false,
          "internalType": "bytes",
          "name": "pubKey",
          "type": "bytes"
        },
        {
          "indexed": false,
          "internalType": "address",
          "name": "rolupAdmin",
          "type": "address"
        }
      ],
      "name": "ValidatorSubmitted",
      "type": "event"
    },
    {
      "inputs": [
        {
          "internalType": "uint256",
          "name": "",
          "type": "uint256"
        }
      ],
      "name": "activePubkeys",
      "outputs": [
        {
          "internalType": "bytes",
          "name": "",
          "type": "bytes"
        }
      ],
      "stateMutability": "view",
      "type": "function"
    },
    {
      "inputs": [
        {
          "internalType": "uint64[]",
          "name": "operatorIds",
          "type": "uint64[]"
        },
        {
          "internalType": "uint64",
          "name": "clusterId",
          "type": "uint64"
        }
      ],
      "name": "addCluster",
      "outputs": [],
      "stateMutability": "nonpayable",
      "type": "function"
    },
    {
      "inputs": [
        {
          "internalType": "uint16",
          "name": "newStakingLimit",
          "type": "uint16"
        }
      ],
      "name": "changeStakingLimit",
      "outputs": [],
      "stateMutability": "nonpayable",
      "type": "function"
    },
    {
      "inputs": [
        {
          "internalType": "address",
          "name": "_rollupAdmin",
          "type": "address"
        },
        {
          "components": [
            {
              "internalType": "bytes",
              "name": "pubKey",
              "type": "bytes"
            },
            {
              "internalType": "bytes",
              "name": "withdrawalAddress",
              "type": "bytes"
            },
            {
              "internalType": "bytes",
              "name": "signature",
              "type": "bytes"
            },
            {
              "internalType": "bytes32",
              "name": "depositRoot",
              "type": "bytes32"
            }
          ],
          "internalType": "struct INexusInterface.Validator[]",
          "name": "_validators",
          "type": "tuple[]"
        }
      ],
      "name": "depositValidatorRollup",
      "outputs": [],
      "stateMutability": "nonpayable",
      "type": "function"
    },
    {
      "inputs": [
        {
          "internalType": "address",
          "name": "_rollupAdmin",
          "type": "address"
        },
        {
          "components": [
            {
              "internalType": "bytes",
              "name": "pubKey",
              "type": "bytes"
            },
            {
              "internalType": "uint64[]",
              "name": "operatorIds",
              "type": "uint64[]"
            },
            {
              "internalType": "bytes",
              "name": "sharesEncrypted",
              "type": "bytes"
            },
            {
              "internalType": "uint256",
              "name": "amount",
              "type": "uint256"
            },
            {
              "components": [
                {
                  "internalType": "uint32",
                  "name": "validatorCount",
                  "type": "uint32"
                },
                {
                  "internalType": "uint64",
                  "name": "networkFeeIndex",
                  "type": "uint64"
                },
                {
                  "internalType": "uint64",
                  "name": "index",
                  "type": "uint64"
                },
                {
                  "internalType": "bool",
                  "name": "active",
                  "type": "bool"
                },
                {
                  "internalType": "uint256",
                  "name": "balance",
                  "type": "uint256"
                }
              ],
              "internalType": "struct ISSVNetworkCore.Cluster",
              "name": "cluster",
              "type": "tuple"
            }
          ],
          "internalType": "struct INexusInterface.ValidatorShares",
          "name": "_validatorShare",
          "type": "tuple"
        }
      ],
      "name": "depositValidatorShares",
      "outputs": [],
      "stateMutability": "nonpayable",
      "type": "function"
    },
    {
      "inputs": [
        {
          "internalType": "uint256",
          "name": "",
          "type": "uint256"
        }
      ],
      "name": "depositingPubkeys",
      "outputs": [
        {
          "internalType": "bytes",
          "name": "",
          "type": "bytes"
        }
      ],
      "stateMutability": "view",
      "type": "function"
    },
    {
      "inputs": [
        {
          "internalType": "uint64",
          "name": "clusterId",
          "type": "uint64"
        }
      ],
      "name": "getCluster",
      "outputs": [
        {
          "internalType": "uint64[]",
          "name": "",
          "type": "uint64[]"
        }
      ],
      "stateMutability": "view",
      "type": "function"
    },
    {
      "inputs": [],
      "name": "getOwner",
      "outputs": [
        {
          "internalType": "address",
          "name": "",
          "type": "address"
        }
      ],
      "stateMutability": "view",
      "type": "function"
    },
    {
      "inputs": [],
      "name": "initialize",
      "outputs": [],
      "stateMutability": "nonpayable",
      "type": "function"
    },
    {
      "inputs": [
        {
          "internalType": "address",
          "name": "rollupAddress",
          "type": "address"
        }
      ],
      "name": "isRollupWhitelisted",
      "outputs": [
        {
          "internalType": "bool",
          "name": "",
          "type": "bool"
        }
      ],
      "stateMutability": "view",
      "type": "function"
    },
    {
      "inputs": [],
      "name": "offChainBot",
      "outputs": [
        {
          "internalType": "address",
          "name": "",
          "type": "address"
        }
      ],
      "stateMutability": "view",
      "type": "function"
    },
    {
      "inputs": [],
      "name": "proxiableUUID",
      "outputs": [
        {
          "internalType": "bytes32",
          "name": "",
          "type": "bytes32"
        }
      ],
      "stateMutability": "pure",
      "type": "function"
    },
    {
      "inputs": [
        {
          "internalType": "uint64",
          "name": "clusterId",
          "type": "uint64"
        },
        {
          "internalType": "uint256",
          "name": "amount",
          "type": "uint256"
        },
        {
          "components": [
            {
              "internalType": "uint32",
              "name": "validatorCount",
              "type": "uint32"
            },
            {
              "internalType": "uint64",
              "name": "networkFeeIndex",
              "type": "uint64"
            },
            {
              "internalType": "uint64",
              "name": "index",
              "type": "uint64"
            },
            {
              "internalType": "bool",
              "name": "active",
              "type": "bool"
            },
            {
              "internalType": "uint256",
              "name": "balance",
              "type": "uint256"
            }
          ],
          "internalType": "struct ISSVNetworkCore.Cluster",
          "name": "cluster",
          "type": "tuple"
        }
      ],
      "name": "rechargeCluster",
      "outputs": [],
      "stateMutability": "nonpayable",
      "type": "function"
    },
    {
      "inputs": [
        {
          "internalType": "uint256",
          "name": "amount",
          "type": "uint256"
        }
      ],
      "name": "rechargeSSV",
      "outputs": [],
      "stateMutability": "nonpayable",
      "type": "function"
    },
    {
      "inputs": [
        {
          "internalType": "address",
          "name": "bridgeContract",
          "type": "address"
        },
        {
          "internalType": "uint32",
          "name": "operatorCluster",
          "type": "uint32"
        },
        {
          "internalType": "uint16",
          "name": "stakingLimit",
          "type": "uint16"
        }
      ],
      "name": "registerRollup",
      "outputs": [],
      "stateMutability": "nonpayable",
      "type": "function"
    },
    {
      "inputs": [
        {
          "internalType": "address",
          "name": "",
          "type": "address"
        }
      ],
      "name": "rollups",
      "outputs": [
        {
          "internalType": "address",
          "name": "bridgeContract",
          "type": "address"
        },
        {
          "internalType": "uint16",
          "name": "stakingLimit",
          "type": "uint16"
        },
        {
          "internalType": "uint64",
          "name": "validatorCount",
          "type": "uint64"
        },
        {
          "internalType": "uint64",
          "name": "operatorCluster",
          "type": "uint64"
        }
      ],
      "stateMutability": "view",
      "type": "function"
    },
    {
      "inputs": [
        {
          "internalType": "address",
          "name": "_botAddress",
          "type": "address"
        }
      ],
      "name": "setOffChainBot",
      "outputs": [],
      "stateMutability": "nonpayable",
      "type": "function"
    },
    {
      "inputs": [
        {
          "internalType": "address",
          "name": "newOwner",
          "type": "address"
        }
      ],
      "name": "transferOwnership",
      "outputs": [],
      "stateMutability": "nonpayable",
      "type": "function"
    },
    {
      "inputs": [
        {
          "components": [
            {
              "internalType": "address",
              "name": "rollupAdmin",
              "type": "address"
            },
            {
              "internalType": "uint256",
              "name": "amount",
              "type": "uint256"
            },
            {
              "internalType": "bool",
              "name": "slashing",
              "type": "bool"
            }
          ],
          "internalType": "struct INexusInterface.RollupRewardUpdate[]",
          "name": "rewards",
          "type": "tuple[]"
        }
      ],
      "name": "updateBridgeRewards",
      "outputs": [],
      "stateMutability": "nonpayable",
      "type": "function"
    },
    {
      "inputs": [
        {
          "internalType": "address",
          "name": "newImplemetation",
          "type": "address"
        }
      ],
      "name": "updateProxy",
      "outputs": [],
      "stateMutability": "nonpayable",
      "type": "function"
    },
    {
      "inputs": [
        {
          "internalType": "address",
          "name": "rollupAdmin",
          "type": "address"
        },
        {
          "internalType": "bytes[]",
          "name": "pubkey",
          "type": "bytes[]"
        }
      ],
      "name": "validatorExit",
      "outputs": [],
      "stateMutability": "nonpayable",
      "type": "function"
    },
    {
      "inputs": [
        {
          "internalType": "string",
          "name": "name",
          "type": "string"
        },
        {
          "internalType": "address",
          "name": "rollupAddress",
          "type": "address"
        }
      ],
      "name": "whitelistRollup",
      "outputs": [],
      "stateMutability": "nonpayable",
      "type": "function"
    }
  ],
  "bytecode": {
    "object": "0x60806040526000805460ff60a01b19169055600380546001600160a01b0319167345a3f77543167c8d0965194879c4e0b0dbb581d017905534801561004357600080fd5b5061270a806100536000396000f3fe608060405234801561001057600080fd5b50600436106101425760003560e01c80639b17541c116100b8578063e2f4a7311161007c578063e2f4a731146102b5578063e596614f146102d8578063ea578821146102f8578063eff00f9d1461030b578063f2fde38b14610399578063f87d7c56146103ac57600080fd5b80639b17541c146102565780639e95514914610269578063c40e9df91461027c578063c91cd8f01461028f578063d30b7b08146102a257600080fd5b8063383bf1421161010a578063383bf142146101be57806352d1902d146101d15780635fa2700a146101ff578063614080a1146102125780638129fc1c1461023d578063893d20e81461024557600080fd5b8063139b0f75146101475780631621eecb1461015c578063279620e31461016f5780633011ad9b14610198578063368d3eac146101ab575b600080fd5b61015a61015536600461195d565b6103bf565b005b61015a61016a366004611a28565b6104b9565b61018261017d366004611a43565b61055a565b60405161018f9190611a5c565b60405180910390f35b61015a6101a6366004611abf565b610606565b61015a6101b9366004611b41565b6106bb565b61015a6101cc366004611c26565b6108e7565b6040517fc5f16f0fcc639fa48a6947836d9850f504798523bf8c9a3a87d5876cf622bcf7815260200161018f565b61015a61020d366004611a43565b610b9a565b600354610225906001600160a01b031681565b6040516001600160a01b03909116815260200161018f565b61015a610c53565b6000546001600160a01b0316610225565b61015a610264366004611cc1565b610c9a565b61015a610277366004611d15565b610eaf565b61015a61028a366004611d15565b610ee6565b61015a61029d366004611d32565b610f33565b61015a6102b0366004611d85565b610fb5565b6102c86102c3366004611d15565b611172565b604051901515815260200161018f565b6102eb6102e6366004611dc1565b611185565b60405161018f9190611ddc565b610182610306366004611a43565b611223565b61035d610319366004611d15565b600460205260009081526040902080546001909101546001600160a01b0382169161ffff600160a01b820416916001600160401b03600160b01b9092048216911684565b604080516001600160a01b03909516855261ffff90931660208501526001600160401b039182169284019290925216606082015260800161018f565b61015a6103a7366004611d15565b611233565b61015a6103ba366004611cc1565b6112c7565b6003546001600160a01b031633146103ea5760405163375152c160e01b815260040160405180910390fd5b6001600160401b03831660009081526005602052604090819020905163bc26e7e560e01b815273c3cd9a0ae89fff83b71b58b6512d43f8a41f363d9163bc26e7e59161043e91309187908790600401611e29565b600060405180830381600087803b15801561045857600080fd5b505af115801561046c573d6000803e3d6000fd5b5050604080516001600160401b0387168152602081018690527f50c39e9703d590409e39722da8c2ce8bfe34dded154bddaa043935c2409c80cc93500190505b60405180910390a1505050565b6104c46001336114c9565b6104e15760405163ad7acb4760e01b815260040160405180910390fd5b33600081815260046020908152604091829020805461ffff60a01b1916600160a01b61ffff87811682810293909317938490558551968752920490911691840191909152908201527fc35693b0d41ba0e2ecaa5c569eaa1975dbb641e314b318cd6940f9a858ad8643906060015b60405180910390a150565b6007818154811061056a57600080fd5b90600052602060002001600091509050805461058590611f8f565b80601f01602080910402602001604051908101604052809291908181526020018280546105b190611f8f565b80156105fe5780601f106105d3576101008083540402835291602001916105fe565b820191906000526020600020905b8154815290600101906020018083116105e157829003601f168201915b505050505081565b6000546001600160a01b03163314610631576040516330cd747160e01b815260040160405180910390fd5b61063c6001826114c9565b1561065a57604051630f084ddf60e31b815260040160405180910390fd5b6106656001826114ee565b1561069d577fcac241f16294cde789c1efe865bbb26d0a5d55fbf2b5b696fdb304c65f231d648383836040516104ac93929190611ff2565b604051634ffc7db360e01b815260040160405180910390fd5b505050565b6003546001600160a01b031633146106e65760405163375152c160e01b815260040160405180910390fd5b60005b81518110156108e357600460008383815181106107085761070861201e565b602090810291909101810151516001600160a01b039081168352908201929092526040016000205483519116906333fcca9e9084908490811061074d5761074d61201e565b60200260200101516020015184848151811061076b5761076b61201e565b6020026020010151604001516004600087878151811061078d5761078d61201e565b602090810291909101810151516001600160a01b03168252810191909152604090810160002054905160e085901b6001600160e01b031916815260048101939093529015156024830152600160b01b90046001600160401b03166044820152606401600060405180830381600087803b15801561080957600080fd5b505af115801561081d573d6000803e3d6000fd5b505050507fb02eef9052d29f14cc3198eeb841dc614962d19ff125ec5af75228e5ba5ded858282815181106108545761085461201e565b6020026020010151600001518383815181106108725761087261201e565b6020026020010151602001518484815181106108905761089061201e565b6020026020010151604001516040516108c9939291906001600160a01b0393909316835260208301919091521515604082015260600190565b60405180910390a1806108db8161204a565b9150506106e9565b5050565b6003546001600160a01b031633146109125760405163375152c160e01b815260040160405180910390fd5b6000806109606109228480612063565b8080601f0160208091040260200160405190810160405280939291908181526020018383808284376000920191909152506006939250506115039050565b915091508161098257604051632f175b3d60e11b815260040160405180910390fd5b60405163095ea7b360e01b815273c3cd9a0ae89fff83b71b58b6512d43f8a41f363d600482015260608401356024820152733a9f01091c446bde031e39ea8354647afef091e79063095ea7b3906044016020604051808303816000875af11580156109f1573d6000803e3d6000fd5b505050506040513d601f19601f82011682018060405250810190610a1591906120a9565b5073c3cd9a0ae89fff83b71b58b6512d43f8a41f363d6306e8fb9c610a3a8580612063565b610a4760208801886120c6565b610a5460408a018a612063565b8a606001358b6080016040518963ffffffff1660e01b8152600401610a80989796959493929190612156565b600060405180830381600087803b158015610a9a57600080fd5b505af1158015610aae573d6000803e3d6000fd5b50610b009250610ac2915085905080612063565b8080601f01602080910402602001604051908101604052809392919081815260200183838082843760009201919091525060069392505061157d9050565b610b4b610b0d8480612063565b8080601f0160208091040260200160405190810160405280939291908181526020018383808284376000920191909152506007939250506116759050565b7f171bb1de68bd2c93b96f9f3f89ca7fd4a762f9459270bf93a55307be183f93f0610b768480612063565b868660600135604051610b8c9493929190612211565b60405180910390a150505050565b6040516323b872dd60e01b815233600482015230602482015260448101829052733a9f01091c446bde031e39ea8354647afef091e7906323b872dd906064016020604051808303816000875af1158015610bf8573d6000803e3d6000fd5b505050506040513d601f19601f82011682018060405250810190610c1c91906120a9565b5060408051338152602081018390527f9197072b76a58ff0d182dcc3661e26955910b29d397c2f4cda192e5ff35f8436910161054f565b600054600160a01b900460ff1615610c7e57604051631ee1e30360e21b815260040160405180910390fd5b60008054600160a01b6001600160a81b03199091163317179055565b6003546001600160a01b03163314610cc55760405163375152c160e01b815260040160405180910390fd5b6001600160a01b03838116600090815260046020819052604091829020549151632d77436760e21b81529282169263b5dd0d9c92610d259287928792600160a01b810461ffff1692600160b01b9091046001600160401b03169101612286565b600060405180830381600087803b158015610d3f57600080fd5b505af1158015610d53573d6000803e3d6000fd5b5050506001600160a01b03841660009081526004602052604090208054839250601690610d929084906001600160401b03600160b01b90910416612369565b92506101000a8154816001600160401b0302191690836001600160401b0316021790555060005b81811015610ea957610e30838383818110610dd657610dd661201e565b9050602002810190610de89190612390565b610df29080612063565b8080601f0160208091040260200160405190810160405280939291908181526020018383808284376000920191909152506006939250506116759050565b7fb7abbfc20ad848177398301a969cb076026b7c4a15b063eda34013ad984587c3838383818110610e6357610e6361201e565b9050602002810190610e759190612390565b610e7f9080612063565b86604051610e8f93929190611ff2565b60405180910390a180610ea18161204a565b915050610db9565b50505050565b6000546001600160a01b03163314610eda576040516330cd747160e01b815260040160405180910390fd5b610ee381611691565b50565b6000546001600160a01b03163314610f11576040516330cd747160e01b815260040160405180910390fd5b600380546001600160a01b0319166001600160a01b0392909216919091179055565b6000546001600160a01b03163314610f5e576040516330cd747160e01b815260040160405180910390fd5b6001600160401b0381166000908152600560205260409020610f819084846117a5565b507f4097741baeae31bc24855afc0ae195fd7b4e0c661cc574214e47f072b68fb5138184846040516104ac939291906123b0565b336000908152600460205260409020546001600160a01b031615610fec576040516312f8923160e31b815260040160405180910390fd5b306001600160a01b0316836001600160a01b031663c06546006040518163ffffffff1660e01b8152600401602060405180830381865afa158015611034573d6000803e3d6000fd5b505050506040513d601f19601f8201168201806040525081019061105891906123d3565b6001600160a01b03161461107f5760405163a714776d60e01b815260040160405180910390fd5b60408051608080820183526001600160a01b0386811680845261ffff86811660208087018281526000888a0181815263ffffffff8d166060808c018281523380865260048852948e90209c518d54965194519b166001600160b01b031990961695909517600160a01b93909816929092029690961767ffffffffffffffff60b01b1916600160b01b6001600160401b03998a1602178a5591516001909901805467ffffffffffffffff191699909716989098179095558751968752860192909252948401528201929092527f639a4937a7e2637d0dbb84dd4ae1f28f3f82480f3565647cf6bbbe5273046f8c91016104ac565b600061117f6001836114c9565b92915050565b6001600160401b03811660009081526005602090815260409182902080548351818402810184019094528084526060939283018282801561121757602002820191906000526020600020906000905b82829054906101000a90046001600160401b03166001600160401b0316815260200190600801906020826007010492830192600103820291508084116111d45790505b50505050509050919050565b6006818154811061056a57600080fd5b6000546001600160a01b0316331461125e576040516330cd747160e01b815260040160405180910390fd5b600054604080516001600160a01b03928316815291831660208301527fb532073b38c83145e3e5135377a08bf9aab55bc0fd7c1179cd4fb995d2a5159c910160405180910390a1600080546001600160a01b0319166001600160a01b0392909216919091179055565b6003546001600160a01b031633146112f25760405163375152c160e01b815260040160405180910390fd5b60005b81811015611464576000806113658585858181106113155761131561201e565b90506020028101906113279190612063565b8080601f0160208091040260200160405190810160405280939291908181526020018383808284376000920191909152506007939250506115039050565b915091508115611436576113d48585858181106113845761138461201e565b90506020028101906113969190612063565b8080601f01602080910402602001604051908101604052809392919081815260200183838082843760009201919091525060079392505061157d9050565b7fcc8a7c9c5bd7463d45f32c9ffe39af44dc854cb4b8dc0329d1c3bdeb1031e014868686868181106114085761140861201e565b905060200281019061141a9190612063565b604051611429939291906123f0565b60405180910390a161144f565b60405163f011cb6b60e01b815260040160405180910390fd5b5050808061145c9061204a565b9150506112f5565b506001600160a01b038316600090815260046020526040902080548291906016906114a0908490600160b01b90046001600160401b0316612415565b92506101000a8154816001600160401b0302191690836001600160401b03160217905550505050565b6001600160a01b038116600090815260018301602052604081205415155b9392505050565b60006114e7836001600160a01b038416611756565b60008060005b845481101561156d57838051906020012085828154811061152c5761152c61201e565b906000526020600020016040516115439190612435565b60405180910390200361155b57600192509050611576565b806115658161204a565b915050611509565b50600080915091505b9250929050565b60005b82548110156106b65781805190602001208382815481106115a3576115a361201e565b906000526020600020016040516115ba9190612435565b6040518091039020036116635782546115d5906001906124ab565b81101561163057825483906115ec906001906124ab565b815481106115fc576115fc61201e565b906000526020600020018382815481106116185761161861201e565b90600052602060002001908161162e919061250c565b505b82805480611640576116406125ec565b60019003818190600052602060002001600061165c9190611866565b9055505050565b8061166d8161204a565b915050611580565b8154600181018355600083815260209020016106b68282612602565b806001600160a01b03166352d1902d6040518163ffffffff1660e01b8152600401602060405180830381865afa1580156116cf573d6000803e3d6000fd5b505050506040513d601f19601f820116820180604052508101906116f391906126bb565b7fc5f16f0fcc639fa48a6947836d9850f504798523bf8c9a3a87d5876cf622bcf7146117325760405163f030d0ad60e01b815260040160405180910390fd5b7fc5f16f0fcc639fa48a6947836d9850f504798523bf8c9a3a87d5876cf622bcf755565b600081815260018301602052604081205461179d5750815460018181018455600084815260208082209093018490558454848252828601909352604090209190915561117f565b50600061117f565b828054828255906000526020600020906003016004900481019282156118565791602002820160005b838211156118215783356001600160401b031683826101000a8154816001600160401b0302191690836001600160401b0316021790555092602001926008016020816007010492830192600103026117ce565b80156118545782816101000a8154906001600160401b030219169055600801602081600701049283019260010302611821565b505b5061186292915061189c565b5090565b50805461187290611f8f565b6000825580601f10611882575050565b601f016020900490600052602060002090810190610ee391905b5b80821115611862576000815560010161189d565b80356001600160401b03811681146118c857600080fd5b919050565b634e487b7160e01b600052604160045260246000fd5b604051606081016001600160401b0381118282101715611905576119056118cd565b60405290565b604051601f8201601f191681016001600160401b0381118282101715611933576119336118cd565b604052919050565b803563ffffffff811681146118c857600080fd5b8015158114610ee357600080fd5b600080600083850360e081121561197357600080fd5b61197c856118b1565b93506020850135925060a0603f198201121561199757600080fd5b5060405160a081018181106001600160401b03821117156119ba576119ba6118cd565b80604052506119cb6040860161193b565b81526119d9606086016118b1565b60208201526119ea608086016118b1565b604082015260a08501356119fd8161194f565b606082015260c094909401356080850152509093909250565b803561ffff811681146118c857600080fd5b600060208284031215611a3a57600080fd5b6114e782611a16565b600060208284031215611a5557600080fd5b5035919050565b600060208083528351808285015260005b81811015611a8957858101830151858201604001528201611a6d565b506000604082860101526040601f19601f8301168501019250505092915050565b6001600160a01b0381168114610ee357600080fd5b600080600060408486031215611ad457600080fd5b83356001600160401b0380821115611aeb57600080fd5b818601915086601f830112611aff57600080fd5b813581811115611b0e57600080fd5b876020828501011115611b2057600080fd5b60209283019550935050840135611b3681611aaa565b809150509250925092565b60006020808385031215611b5457600080fd5b82356001600160401b0380821115611b6b57600080fd5b818501915085601f830112611b7f57600080fd5b813581811115611b9157611b916118cd565b611b9f848260051b0161190b565b81815284810192506060918202840185019188831115611bbe57600080fd5b938501935b82851015611c1a5780858a031215611bdb5760008081fd5b611be36118e3565b8535611bee81611aaa565b81528587013587820152604080870135611c078161194f565b9082015284529384019392850192611bc3565b50979650505050505050565b60008060408385031215611c3957600080fd5b8235611c4481611aaa565b915060208301356001600160401b03811115611c5f57600080fd5b83016101208186031215611c7257600080fd5b809150509250929050565b60008083601f840112611c8f57600080fd5b5081356001600160401b03811115611ca657600080fd5b6020830191508360208260051b850101111561157657600080fd5b600080600060408486031215611cd657600080fd5b8335611ce181611aaa565b925060208401356001600160401b03811115611cfc57600080fd5b611d0886828701611c7d565b9497909650939450505050565b600060208284031215611d2757600080fd5b81356114e781611aaa565b600080600060408486031215611d4757600080fd5b83356001600160401b03811115611d5d57600080fd5b611d6986828701611c7d565b9094509250611d7c9050602085016118b1565b90509250925092565b600080600060608486031215611d9a57600080fd5b8335611da581611aaa565b9250611db36020850161193b565b9150611d7c60408501611a16565b600060208284031215611dd357600080fd5b6114e7826118b1565b6020808252825182820181905260009190848201906040850190845b81811015611e1d5783516001600160401b031683529284019291840191600101611df8565b50909695505050505050565b6001600160a01b0385168152610100602080830182905285546000928401918291611e58818490815260200190565b60008a815260209020909450925060005b81600382011015611eb75783546001600160401b038082168752604082811c821686890152608083811c9092169088015260c09190911c606087015290940193600190930192600401611e69565b92549281811015611ed6576001600160401b0384168552938201936001015b81811015611ef657604084901c6001600160401b03168552938201936001015b81811015611f1657608084901c6001600160401b03168552938201936001015b81811015611f2a5760c084901c8552938201935b50505050604083018590529050611f86606083018463ffffffff815116825260208101516001600160401b0380821660208501528060408401511660408501525050606081015115156060830152608081015160808301525050565b95945050505050565b600181811c90821680611fa357607f821691505b602082108103611fc357634e487b7160e01b600052602260045260246000fd5b50919050565b81835281816020850137506000828201602090810191909152601f909101601f19169091010190565b604081526000612006604083018587611fc9565b905060018060a01b0383166020830152949350505050565b634e487b7160e01b600052603260045260246000fd5b634e487b7160e01b600052601160045260246000fd5b60006001820161205c5761205c612034565b5060010190565b6000808335601e1984360301811261207a57600080fd5b8301803591506001600160401b0382111561209457600080fd5b60200191503681900382131561157657600080fd5b6000602082840312156120bb57600080fd5b81516114e78161194f565b6000808335601e198436030181126120dd57600080fd5b8301803591506001600160401b038211156120f757600080fd5b6020019150600581901b360382131561157657600080fd5b8183526000602080850194508260005b8581101561214b576001600160401b03612138836118b1565b168752958201959082019060010161211f565b509495945050505050565b600061012080835261216b8184018b8d611fc9565b9050828103602084015261218081898b61210f565b90508281036040840152612195818789611fc9565b91505083606083015263ffffffff6121ac8461193b565b1660808301526121be602084016118b1565b6001600160401b0380821660a0850152806121db604087016118b1565b1660c0850152505060608301356121f18161194f565b151560e08301526080929092013561010090910152979650505050505050565b606081526000612225606083018688611fc9565b6001600160a01b03949094166020830152506040015292915050565b6000808335601e1984360301811261225857600080fd5b83016020810192503590506001600160401b0381111561227757600080fd5b80360382131561157657600080fd5b60608082528181018590526000906080808401600588901b850182018985805b8b81101561235057888403607f190185528235368e9003607e190181126122cb578283fd5b8d016122d78180612241565b8887526122e78988018284611fc9565b91505060206122f881840184612241565b888403838a015261230a848284611fc9565b93505050604061231c81850185612241565b898503838b015261232e858284611fc9565b958d0135998d01999099525050968701969195505092909201916001016122a6565b5050506020860197909752505050506040015292915050565b6001600160401b0381811683821601908082111561238957612389612034565b5092915050565b60008235607e198336030181126123a657600080fd5b9190910192915050565b6001600160401b0384168152604060208201526000611f8660408301848661210f565b6000602082840312156123e557600080fd5b81516114e781611aaa565b6001600160a01b0384168152604060208201819052600090611f869083018486611fc9565b6001600160401b0382811682821603908082111561238957612389612034565b600080835461244381611f8f565b6001828116801561245b57600181146124705761249f565b60ff198416875282151583028701945061249f565b8760005260208060002060005b858110156124965781548a82015290840190820161247d565b50505082870194505b50929695505050505050565b8181038181111561117f5761117f612034565b601f8211156106b657600081815260208120601f850160051c810160208610156124e55750805b601f850160051c820191505b81811015612504578281556001016124f1565b505050505050565b818103612517575050565b6125218254611f8f565b6001600160401b03811115612538576125386118cd565b61254c816125468454611f8f565b846124be565b6000601f82116001811461258057600083156125685750848201545b600019600385901b1c1916600184901b1784556125e5565b600085815260209020601f19841690600086815260209020845b838110156125ba578286015482556001958601959091019060200161259a565b50858310156125d85781850154600019600388901b60f8161c191681555b50505060018360011b0184555b5050505050565b634e487b7160e01b600052603160045260246000fd5b81516001600160401b0381111561261b5761261b6118cd565b612629816125468454611f8f565b602080601f83116001811461265e57600084156126465750858301515b600019600386901b1c1916600185901b178555612504565b600085815260208120601f198616915b8281101561268d5788860151825594840194600190910190840161266e565b50858210156126ab5787850151600019600388901b60f8161c191681555b5050505050600190811b01905550565b6000602082840312156126cd57600080fd5b505191905056fea264697066735822122018f3290d9f005d38996886f86d040aa78cca05c16e15bf8871aede880e59b6ac64736f6c63430008130033",
    "linkReferences": {}
  },
  "methodIdentifiers": {
    "activePubkeys(uint256)": "279620e3",
    "addCluster(uint64[],uint64)": "c91cd8f0",
    "changeStakingLimit(uint16)": "1621eecb",
    "depositValidatorRollup(address,(bytes,bytes,bytes,bytes32)[])": "9b17541c",
    "depositValidatorShares(address,(bytes,uint64[],bytes,uint256,(uint32,uint64,uint64,bool,uint256)))": "383bf142",
    "depositingPubkeys(uint256)": "ea578821",
    "getCluster(uint64)": "e596614f",
    "getOwner()": "893d20e8",
    "initialize()": "8129fc1c",
    "isRollupWhitelisted(address)": "e2f4a731",
    "offChainBot()": "614080a1",
    "proxiableUUID()": "52d1902d",
    "rechargeCluster(uint64,uint256,(uint32,uint64,uint64,bool,uint256))": "139b0f75",
    "rechargeSSV(uint256)": "5fa2700a",
    "registerRollup(address,uint32,uint16)": "d30b7b08",
    "rollups(address)": "eff00f9d",
    "setOffChainBot(address)": "c40e9df9",
    "transferOwnership(address)": "f2fde38b",
    "updateBridgeRewards((address,uint256,bool)[])": "368d3eac",
    "updateProxy(address)": "9e955149",
    "validatorExit(address,bytes[])": "f87d7c56",
    "whitelistRollup(string,address)": "3011ad9b"
  },
  "id": 0
}