{
  "_format": "hh-sol-artifact-1",
  "contractName": "Nexus",
  "sourceName": "contracts/Nexus.sol",
  "abi": [
    {
      "inputs": [],
      "name": "AddressAlreadyWhitelisted",
      "type": "error"
    },
    {
      "inputs": [],
      "name": "AddressNotWhitelisted",
      "type": "error"
    },
    {
      "inputs": [],
      "name": "ContractAlreadyInitialized",
      "type": "error"
    },
    {
      "inputs": [],
      "name": "InvalidKeySupplied",
      "type": "error"
    },
    {
      "inputs": [],
      "name": "KeyNotDeposited",
      "type": "error"
    },
    {
      "inputs": [],
      "name": "NexusAddressNotFound",
      "type": "error"
    },
    {
      "inputs": [],
      "name": "NotCompatible",
      "type": "error"
    },
    {
      "inputs": [],
      "name": "NotNexusBot",
      "type": "error"
    },
    {
      "inputs": [],
      "name": "NotOwner",
      "type": "error"
    },
    {
      "inputs": [],
      "name": "RollupAlreadyPresent",
      "type": "error"
    },
    {
      "inputs": [],
      "name": "RollupAlreadyRegistered",
      "type": "error"
    },
    {
      "anonymous": false,
      "inputs": [
        {
          "indexed": false,
          "internalType": "uint64",
          "name": "clusterId",
          "type": "uint64"
        },
        {
          "indexed": false,
          "internalType": "uint64[]",
          "name": "operatorIds",
          "type": "uint64[]"
        }
      ],
      "name": "ClusterAdded",
      "type": "event"
    },
    {
      "anonymous": false,
      "inputs": [
        {
          "indexed": false,
          "internalType": "uint64",
          "name": "clusterId",
          "type": "uint64"
        },
        {
          "indexed": false,
          "internalType": "uint256",
          "name": "amount",
          "type": "uint256"
        }
      ],
      "name": "ClusterRecharged",
      "type": "event"
    },
    {
      "anonymous": false,
      "inputs": [
        {
          "indexed": false,
          "internalType": "address",
          "name": "oldOwner",
          "type": "address"
        },
        {
          "indexed": false,
          "internalType": "address",
          "name": "newOwner",
          "type": "address"
        }
      ],
      "name": "OwnerChanged",
      "type": "event"
    },
    {
      "anonymous": false,
      "inputs": [
        {
          "indexed": false,
          "internalType": "address",
          "name": "rollupAdmin",
          "type": "address"
        },
        {
          "indexed": false,
          "internalType": "address",
          "name": "withdrawalAddress",
          "type": "address"
        },
        {
          "indexed": false,
          "internalType": "uint16",
          "name": "stakingLimit",
          "type": "uint16"
        },
        {
          "indexed": false,
          "internalType": "uint64",
          "name": "operatorCluster",
          "type": "uint64"
        }
      ],
      "name": "RollupRegistered",
      "type": "event"
    },
    {
      "anonymous": false,
      "inputs": [
        {
          "indexed": false,
          "internalType": "address",
          "name": "admin",
          "type": "address"
        },
        {
          "indexed": false,
          "internalType": "uint256",
          "name": "amount",
          "type": "uint256"
        },
        {
          "indexed": false,
          "internalType": "bool",
          "name": "slashing",
          "type": "bool"
        }
      ],
      "name": "RollupRewardsUpdated",
      "type": "event"
    },
    {
      "anonymous": false,
      "inputs": [
        {
          "indexed": false,
          "internalType": "string",
          "name": "name",
          "type": "string"
        },
        {
          "indexed": false,
          "internalType": "address",
          "name": "rollupAddress",
          "type": "address"
        }
      ],
      "name": "RollupWhitelisted",
      "type": "event"
    },
    {
      "anonymous": false,
      "inputs": [
        {
          "indexed": false,
          "internalType": "address",
          "name": "sender",
          "type": "address"
        },
        {
          "indexed": false,
          "internalType": "uint256",
          "name": "amount",
          "type": "uint256"
        }
      ],
      "name": "SSVRecharged",
      "type": "event"
    },
    {
      "anonymous": false,
      "inputs": [
        {
          "indexed": false,
          "internalType": "address",
          "name": "rollupAdmin",
          "type": "address"
        },
        {
          "indexed": false,
          "internalType": "uint16",
          "name": "oldStakingLimit",
          "type": "uint16"
        },
        {
          "indexed": false,
          "internalType": "uint16",
          "name": "newStakingLimit",
          "type": "uint16"
        }
      ],
      "name": "StakingLimitChanged",
      "type": "event"
    },
    {
      "anonymous": false,
      "inputs": [
        {
          "indexed": false,
          "internalType": "address",
          "name": "admin",
          "type": "address"
        },
        {
          "indexed": false,
          "internalType": "bytes",
          "name": "pubKey",
          "type": "bytes"
        }
      ],
      "name": "ValidatorExited",
      "type": "event"
    },
    {
      "anonymous": false,
      "inputs": [
        {
          "indexed": false,
          "internalType": "bytes",
          "name": "pubKey",
          "type": "bytes"
        },
        {
          "indexed": false,
          "internalType": "address",
          "name": "rolupAdmin",
          "type": "address"
        },
        {
          "indexed": false,
          "internalType": "uint256",
          "name": "amount",
          "type": "uint256"
        }
      ],
      "name": "ValidatorShareSubmitted",
      "type": "event"
    },
    {
      "anonymous": false,
      "inputs": [
        {
          "indexed": false,
          "internalType": "bytes",
          "name": "pubKey",
          "type": "bytes"
        },
        {
          "indexed": false,
          "internalType": "address",
          "name": "rolupAdmin",
          "type": "address"
        }
      ],
      "name": "ValidatorSubmitted",
      "type": "event"
    },
    {
      "inputs": [
        {
          "internalType": "uint256",
          "name": "",
          "type": "uint256"
        }
      ],
      "name": "activePubkeys",
      "outputs": [
        {
          "internalType": "bytes",
          "name": "",
          "type": "bytes"
        }
      ],
      "stateMutability": "view",
      "type": "function"
    },
    {
      "inputs": [
        {
          "internalType": "uint64[]",
          "name": "operatorIds",
          "type": "uint64[]"
        },
        {
          "internalType": "uint64",
          "name": "clusterId",
          "type": "uint64"
        }
      ],
      "name": "addCluster",
      "outputs": [],
      "stateMutability": "nonpayable",
      "type": "function"
    },
    {
      "inputs": [
        {
          "internalType": "uint16",
          "name": "newStakingLimit",
          "type": "uint16"
        }
      ],
      "name": "changeStakingLimit",
      "outputs": [],
      "stateMutability": "nonpayable",
      "type": "function"
    },
    {
      "inputs": [
        {
          "internalType": "address",
          "name": "_rollupAdmin",
          "type": "address"
        },
        {
          "components": [
            {
              "internalType": "bytes",
              "name": "pubKey",
              "type": "bytes"
            },
            {
              "internalType": "bytes",
              "name": "withdrawalAddress",
              "type": "bytes"
            },
            {
              "internalType": "bytes",
              "name": "signature",
              "type": "bytes"
            },
            {
              "internalType": "bytes32",
              "name": "depositRoot",
              "type": "bytes32"
            }
          ],
          "internalType": "struct INexusInterface.Validator[]",
          "name": "_validators",
          "type": "tuple[]"
        }
      ],
      "name": "depositValidatorRollup",
      "outputs": [],
      "stateMutability": "nonpayable",
      "type": "function"
    },
    {
      "inputs": [
        {
          "internalType": "address",
          "name": "_rollupAdmin",
          "type": "address"
        },
        {
          "components": [
            {
              "internalType": "bytes",
              "name": "pubKey",
              "type": "bytes"
            },
            {
              "internalType": "uint64[]",
              "name": "operatorIds",
              "type": "uint64[]"
            },
            {
              "internalType": "bytes",
              "name": "sharesEncrypted",
              "type": "bytes"
            },
            {
              "internalType": "uint256",
              "name": "amount",
              "type": "uint256"
            },
            {
              "components": [
                {
                  "internalType": "uint32",
                  "name": "validatorCount",
                  "type": "uint32"
                },
                {
                  "internalType": "uint64",
                  "name": "networkFeeIndex",
                  "type": "uint64"
                },
                {
                  "internalType": "uint64",
                  "name": "index",
                  "type": "uint64"
                },
                {
                  "internalType": "bool",
                  "name": "active",
                  "type": "bool"
                },
                {
                  "internalType": "uint256",
                  "name": "balance",
                  "type": "uint256"
                }
              ],
              "internalType": "struct ISSVNetworkCore.Cluster",
              "name": "cluster",
              "type": "tuple"
            }
          ],
          "internalType": "struct INexusInterface.ValidatorShares",
          "name": "_validatorShare",
          "type": "tuple"
        }
      ],
      "name": "depositValidatorShares",
      "outputs": [],
      "stateMutability": "nonpayable",
      "type": "function"
    },
    {
      "inputs": [
        {
          "internalType": "uint256",
          "name": "",
          "type": "uint256"
        }
      ],
      "name": "depositingPubkeys",
      "outputs": [
        {
          "internalType": "bytes",
          "name": "",
          "type": "bytes"
        }
      ],
      "stateMutability": "view",
      "type": "function"
    },
    {
      "inputs": [
        {
          "internalType": "uint64",
          "name": "clusterId",
          "type": "uint64"
        }
      ],
      "name": "getCluster",
      "outputs": [
        {
          "internalType": "uint64[]",
          "name": "",
          "type": "uint64[]"
        }
      ],
      "stateMutability": "view",
      "type": "function"
    },
    {
      "inputs": [],
      "name": "getOwner",
      "outputs": [
        {
          "internalType": "address",
          "name": "",
          "type": "address"
        }
      ],
      "stateMutability": "view",
      "type": "function"
    },
    {
      "inputs": [],
      "name": "initialize",
      "outputs": [],
      "stateMutability": "nonpayable",
      "type": "function"
    },
    {
      "inputs": [
        {
          "internalType": "address",
          "name": "rollupAddress",
          "type": "address"
        }
      ],
      "name": "isRollupWhitelisted",
      "outputs": [
        {
          "internalType": "bool",
          "name": "",
          "type": "bool"
        }
      ],
      "stateMutability": "view",
      "type": "function"
    },
    {
      "inputs": [],
      "name": "offChainBot",
      "outputs": [
        {
          "internalType": "address",
          "name": "",
          "type": "address"
        }
      ],
      "stateMutability": "view",
      "type": "function"
    },
    {
      "inputs": [],
      "name": "proxiableUUID",
      "outputs": [
        {
          "internalType": "bytes32",
          "name": "",
          "type": "bytes32"
        }
      ],
      "stateMutability": "pure",
      "type": "function"
    },
    {
      "inputs": [
        {
          "internalType": "uint64",
          "name": "clusterId",
          "type": "uint64"
        },
        {
          "internalType": "uint256",
          "name": "amount",
          "type": "uint256"
        },
        {
          "components": [
            {
              "internalType": "uint32",
              "name": "validatorCount",
              "type": "uint32"
            },
            {
              "internalType": "uint64",
              "name": "networkFeeIndex",
              "type": "uint64"
            },
            {
              "internalType": "uint64",
              "name": "index",
              "type": "uint64"
            },
            {
              "internalType": "bool",
              "name": "active",
              "type": "bool"
            },
            {
              "internalType": "uint256",
              "name": "balance",
              "type": "uint256"
            }
          ],
          "internalType": "struct ISSVNetworkCore.Cluster",
          "name": "cluster",
          "type": "tuple"
        }
      ],
      "name": "rechargeCluster",
      "outputs": [],
      "stateMutability": "nonpayable",
      "type": "function"
    },
    {
      "inputs": [
        {
          "internalType": "uint256",
          "name": "amount",
          "type": "uint256"
        }
      ],
      "name": "rechargeSSV",
      "outputs": [],
      "stateMutability": "nonpayable",
      "type": "function"
    },
    {
      "inputs": [
        {
          "internalType": "address",
          "name": "bridgeContract",
          "type": "address"
        },
        {
          "internalType": "uint64",
          "name": "operatorCluster",
          "type": "uint64"
        },
        {
          "internalType": "uint16",
          "name": "stakingLimit",
          "type": "uint16"
        }
      ],
      "name": "registerRollup",
      "outputs": [],
      "stateMutability": "nonpayable",
      "type": "function"
    },
    {
      "inputs": [
        {
          "internalType": "address",
          "name": "",
          "type": "address"
        }
      ],
      "name": "rollups",
      "outputs": [
        {
          "internalType": "address",
          "name": "bridgeContract",
          "type": "address"
        },
        {
          "internalType": "uint16",
          "name": "stakingLimit",
          "type": "uint16"
        },
        {
          "internalType": "uint64",
          "name": "validatorCount",
          "type": "uint64"
        },
        {
          "internalType": "uint64",
          "name": "operatorCluster",
          "type": "uint64"
        }
      ],
      "stateMutability": "view",
      "type": "function"
    },
    {
      "inputs": [
        {
          "internalType": "address",
          "name": "_botAddress",
          "type": "address"
        }
      ],
      "name": "setOffChainBot",
      "outputs": [],
      "stateMutability": "nonpayable",
      "type": "function"
    },
    {
      "inputs": [
        {
          "internalType": "address",
          "name": "newOwner",
          "type": "address"
        }
      ],
      "name": "transferOwnership",
      "outputs": [],
      "stateMutability": "nonpayable",
      "type": "function"
    },
    {
      "inputs": [
        {
          "components": [
            {
              "internalType": "address",
              "name": "rollupAdmin",
              "type": "address"
            },
            {
              "internalType": "uint256",
              "name": "amount",
              "type": "uint256"
            },
            {
              "internalType": "bool",
              "name": "slashing",
              "type": "bool"
            }
          ],
          "internalType": "struct INexusInterface.RollupRewardUpdate[]",
          "name": "rewards",
          "type": "tuple[]"
        }
      ],
      "name": "updateBridgeRewards",
      "outputs": [],
      "stateMutability": "nonpayable",
      "type": "function"
    },
    {
      "inputs": [
        {
          "internalType": "address",
          "name": "newImplemetation",
          "type": "address"
        }
      ],
      "name": "updateProxy",
      "outputs": [],
      "stateMutability": "nonpayable",
      "type": "function"
    },
    {
      "inputs": [
        {
          "internalType": "address",
          "name": "rollupAdmin",
          "type": "address"
        },
        {
          "internalType": "bytes[]",
          "name": "pubkey",
          "type": "bytes[]"
        }
      ],
      "name": "validatorExit",
      "outputs": [],
      "stateMutability": "nonpayable",
      "type": "function"
    },
    {
      "inputs": [
        {
          "internalType": "string",
          "name": "name",
          "type": "string"
        },
        {
          "internalType": "address",
          "name": "rollupAddress",
          "type": "address"
        }
      ],
      "name": "whitelistRollup",
      "outputs": [],
      "stateMutability": "nonpayable",
      "type": "function"
    }
  ],
  "bytecode": "0x60806040526000805460ff60a01b19169055600380546001600160a01b0319167345a3f77543167c8d0965194879c4e0b0dbb581d017905534801561004357600080fd5b506126e0806100536000396000f3fe608060405234801561001057600080fd5b50600436106101425760003560e01c80639b17541c116100b8578063e2f4a7311161007c578063e2f4a731146102b5578063e596614f146102d8578063ea578821146102f8578063eff00f9d1461030b578063f2fde38b14610399578063f87d7c56146103ac57600080fd5b80639b17541c146102565780639e95514914610269578063c40e9df91461027c578063c91cd8f01461028f578063d9789746146102a257600080fd5b8063383bf1421161010a578063383bf142146101be57806352d1902d146101d15780635fa2700a146101ff578063614080a1146102125780638129fc1c1461023d578063893d20e81461024557600080fd5b8063139b0f75146101475780631621eecb1461015c578063279620e31461016f5780633011ad9b14610198578063368d3eac146101ab575b600080fd5b61015a610155366004611933565b6103bf565b005b61015a61016a3660046119fe565b6104b9565b61018261017d366004611a19565b61055a565b60405161018f9190611a32565b60405180910390f35b61015a6101a6366004611a95565b610606565b61015a6101b9366004611b17565b610690565b61015a6101cc366004611bfc565b6108bc565b6040517fc5f16f0fcc639fa48a6947836d9850f504798523bf8c9a3a87d5876cf622bcf7815260200161018f565b61015a61020d366004611a19565b610b6f565b600354610225906001600160a01b031681565b6040516001600160a01b03909116815260200161018f565b61015a610c28565b6000546001600160a01b0316610225565b61015a610264366004611c97565b610c6f565b61015a610277366004611ceb565b610e84565b61015a61028a366004611ceb565b610ebb565b61015a61029d366004611d08565b610f08565b61015a6102b0366004611d5b565b610f8a565b6102c86102c3366004611ceb565b611148565b604051901515815260200161018f565b6102eb6102e6366004611d97565b61115b565b60405161018f9190611db2565b610182610306366004611a19565b6111f9565b61035d610319366004611ceb565b600460205260009081526040902080546001909101546001600160a01b0382169161ffff600160a01b820416916001600160401b03600160b01b9092048216911684565b604080516001600160a01b03909516855261ffff90931660208501526001600160401b039182169284019290925216606082015260800161018f565b61015a6103a7366004611ceb565b611209565b61015a6103ba366004611c97565b61129d565b6003546001600160a01b031633146103ea5760405163375152c160e01b815260040160405180910390fd5b6001600160401b03831660009081526005602052604090819020905163bc26e7e560e01b815273c3cd9a0ae89fff83b71b58b6512d43f8a41f363d9163bc26e7e59161043e91309187908790600401611dff565b600060405180830381600087803b15801561045857600080fd5b505af115801561046c573d6000803e3d6000fd5b5050604080516001600160401b0387168152602081018690527f50c39e9703d590409e39722da8c2ce8bfe34dded154bddaa043935c2409c80cc93500190505b60405180910390a1505050565b6104c460013361149f565b6104e15760405163ad7acb4760e01b815260040160405180910390fd5b33600081815260046020908152604091829020805461ffff60a01b1916600160a01b61ffff87811682810293909317938490558551968752920490911691840191909152908201527fc35693b0d41ba0e2ecaa5c569eaa1975dbb641e314b318cd6940f9a858ad8643906060015b60405180910390a150565b6007818154811061056a57600080fd5b90600052602060002001600091509050805461058590611f65565b80601f01602080910402602001604051908101604052809291908181526020018280546105b190611f65565b80156105fe5780601f106105d3576101008083540402835291602001916105fe565b820191906000526020600020905b8154815290600101906020018083116105e157829003601f168201915b505050505081565b61061160018261149f565b1561062f57604051630f084ddf60e31b815260040160405180910390fd5b61063a6001826114c4565b15610672577fcac241f16294cde789c1efe865bbb26d0a5d55fbf2b5b696fdb304c65f231d648383836040516104ac93929190611fc8565b604051634ffc7db360e01b815260040160405180910390fd5b505050565b6003546001600160a01b031633146106bb5760405163375152c160e01b815260040160405180910390fd5b60005b81518110156108b857600460008383815181106106dd576106dd611ff4565b602090810291909101810151516001600160a01b039081168352908201929092526040016000205483519116906333fcca9e9084908490811061072257610722611ff4565b60200260200101516020015184848151811061074057610740611ff4565b6020026020010151604001516004600087878151811061076257610762611ff4565b602090810291909101810151516001600160a01b03168252810191909152604090810160002054905160e085901b6001600160e01b031916815260048101939093529015156024830152600160b01b90046001600160401b03166044820152606401600060405180830381600087803b1580156107de57600080fd5b505af11580156107f2573d6000803e3d6000fd5b505050507fb02eef9052d29f14cc3198eeb841dc614962d19ff125ec5af75228e5ba5ded8582828151811061082957610829611ff4565b60200260200101516000015183838151811061084757610847611ff4565b60200260200101516020015184848151811061086557610865611ff4565b60200260200101516040015160405161089e939291906001600160a01b0393909316835260208301919091521515604082015260600190565b60405180910390a1806108b081612020565b9150506106be565b5050565b6003546001600160a01b031633146108e75760405163375152c160e01b815260040160405180910390fd5b6000806109356108f78480612039565b8080601f0160208091040260200160405190810160405280939291908181526020018383808284376000920191909152506006939250506114d99050565b915091508161095757604051632f175b3d60e11b815260040160405180910390fd5b60405163095ea7b360e01b815273c3cd9a0ae89fff83b71b58b6512d43f8a41f363d600482015260608401356024820152733a9f01091c446bde031e39ea8354647afef091e79063095ea7b3906044016020604051808303816000875af11580156109c6573d6000803e3d6000fd5b505050506040513d601f19601f820116820180604052508101906109ea919061207f565b5073c3cd9a0ae89fff83b71b58b6512d43f8a41f363d6306e8fb9c610a0f8580612039565b610a1c602088018861209c565b610a2960408a018a612039565b8a606001358b6080016040518963ffffffff1660e01b8152600401610a5598979695949392919061212c565b600060405180830381600087803b158015610a6f57600080fd5b505af1158015610a83573d6000803e3d6000fd5b50610ad59250610a97915085905080612039565b8080601f0160208091040260200160405190810160405280939291908181526020018383808284376000920191909152506006939250506115539050565b610b20610ae28480612039565b8080601f01602080910402602001604051908101604052809392919081815260200183838082843760009201919091525060079392505061164b9050565b7f171bb1de68bd2c93b96f9f3f89ca7fd4a762f9459270bf93a55307be183f93f0610b4b8480612039565b868660600135604051610b6194939291906121e7565b60405180910390a150505050565b6040516323b872dd60e01b815233600482015230602482015260448101829052733a9f01091c446bde031e39ea8354647afef091e7906323b872dd906064016020604051808303816000875af1158015610bcd573d6000803e3d6000fd5b505050506040513d601f19601f82011682018060405250810190610bf1919061207f565b5060408051338152602081018390527f9197072b76a58ff0d182dcc3661e26955910b29d397c2f4cda192e5ff35f8436910161054f565b600054600160a01b900460ff1615610c5357604051631ee1e30360e21b815260040160405180910390fd5b60008054600160a01b6001600160a81b03199091163317179055565b6003546001600160a01b03163314610c9a5760405163375152c160e01b815260040160405180910390fd5b6001600160a01b03838116600090815260046020819052604091829020549151632d77436760e21b81529282169263b5dd0d9c92610cfa9287928792600160a01b810461ffff1692600160b01b9091046001600160401b0316910161225c565b600060405180830381600087803b158015610d1457600080fd5b505af1158015610d28573d6000803e3d6000fd5b5050506001600160a01b03841660009081526004602052604090208054839250601690610d679084906001600160401b03600160b01b9091041661233f565b92506101000a8154816001600160401b0302191690836001600160401b0316021790555060005b81811015610e7e57610e05838383818110610dab57610dab611ff4565b9050602002810190610dbd9190612366565b610dc79080612039565b8080601f01602080910402602001604051908101604052809392919081815260200183838082843760009201919091525060069392505061164b9050565b7fb7abbfc20ad848177398301a969cb076026b7c4a15b063eda34013ad984587c3838383818110610e3857610e38611ff4565b9050602002810190610e4a9190612366565b610e549080612039565b86604051610e6493929190611fc8565b60405180910390a180610e7681612020565b915050610d8e565b50505050565b6000546001600160a01b03163314610eaf576040516330cd747160e01b815260040160405180910390fd5b610eb881611667565b50565b6000546001600160a01b03163314610ee6576040516330cd747160e01b815260040160405180910390fd5b600380546001600160a01b0319166001600160a01b0392909216919091179055565b6000546001600160a01b03163314610f33576040516330cd747160e01b815260040160405180910390fd5b6001600160401b0381166000908152600560205260409020610f5690848461177b565b507f4097741baeae31bc24855afc0ae195fd7b4e0c661cc574214e47f072b68fb5138184846040516104ac93929190612386565b336000908152600460205260409020546001600160a01b031615610fc1576040516312f8923160e31b815260040160405180910390fd5b306001600160a01b0316836001600160a01b031663c06546006040518163ffffffff1660e01b8152600401602060405180830381865afa158015611009573d6000803e3d6000fd5b505050506040513d601f19601f8201168201806040525081019061102d91906123a9565b6001600160a01b0316146110545760405163a714776d60e01b815260040160405180910390fd5b60408051608080820183526001600160a01b0386811680845261ffff86811660208087018281526000888a018181526001600160401b038d81166060808d018281523380875260048952958f90209d518e54975195518516600160b01b0267ffffffffffffffff60b01b1996909b16600160a01b026001600160b01b03199098169c169b909b179590951792909216969096178a559651600190990180549990951667ffffffffffffffff1990991698909817909355875196875286019290925294840152928201929092527f8f81d8975c7d9e9e27dd28c9b5a24a29da47a87f529483b268403dd937fbaf9c91016104ac565b600061115560018361149f565b92915050565b6001600160401b0381166000908152600560209081526040918290208054835181840281018401909452808452606093928301828280156111ed57602002820191906000526020600020906000905b82829054906101000a90046001600160401b03166001600160401b0316815260200190600801906020826007010492830192600103820291508084116111aa5790505b50505050509050919050565b6006818154811061056a57600080fd5b6000546001600160a01b03163314611234576040516330cd747160e01b815260040160405180910390fd5b600054604080516001600160a01b03928316815291831660208301527fb532073b38c83145e3e5135377a08bf9aab55bc0fd7c1179cd4fb995d2a5159c910160405180910390a1600080546001600160a01b0319166001600160a01b0392909216919091179055565b6003546001600160a01b031633146112c85760405163375152c160e01b815260040160405180910390fd5b60005b8181101561143a5760008061133b8585858181106112eb576112eb611ff4565b90506020028101906112fd9190612039565b8080601f0160208091040260200160405190810160405280939291908181526020018383808284376000920191909152506007939250506114d99050565b91509150811561140c576113aa85858581811061135a5761135a611ff4565b905060200281019061136c9190612039565b8080601f0160208091040260200160405190810160405280939291908181526020018383808284376000920191909152506007939250506115539050565b7fcc8a7c9c5bd7463d45f32c9ffe39af44dc854cb4b8dc0329d1c3bdeb1031e014868686868181106113de576113de611ff4565b90506020028101906113f09190612039565b6040516113ff939291906123c6565b60405180910390a1611425565b60405163f011cb6b60e01b815260040160405180910390fd5b5050808061143290612020565b9150506112cb565b506001600160a01b03831660009081526004602052604090208054829190601690611476908490600160b01b90046001600160401b03166123eb565b92506101000a8154816001600160401b0302191690836001600160401b03160217905550505050565b6001600160a01b038116600090815260018301602052604081205415155b9392505050565b60006114bd836001600160a01b03841661172c565b60008060005b845481101561154357838051906020012085828154811061150257611502611ff4565b90600052602060002001604051611519919061240b565b6040518091039020036115315760019250905061154c565b8061153b81612020565b9150506114df565b50600080915091505b9250929050565b60005b825481101561068b57818051906020012083828154811061157957611579611ff4565b90600052602060002001604051611590919061240b565b6040518091039020036116395782546115ab90600190612481565b81101561160657825483906115c290600190612481565b815481106115d2576115d2611ff4565b906000526020600020018382815481106115ee576115ee611ff4565b90600052602060002001908161160491906124e2565b505b82805480611616576116166125c2565b600190038181906000526020600020016000611632919061183c565b9055505050565b8061164381612020565b915050611556565b81546001810183556000838152602090200161068b82826125d8565b806001600160a01b03166352d1902d6040518163ffffffff1660e01b8152600401602060405180830381865afa1580156116a5573d6000803e3d6000fd5b505050506040513d601f19601f820116820180604052508101906116c99190612691565b7fc5f16f0fcc639fa48a6947836d9850f504798523bf8c9a3a87d5876cf622bcf7146117085760405163f030d0ad60e01b815260040160405180910390fd5b7fc5f16f0fcc639fa48a6947836d9850f504798523bf8c9a3a87d5876cf622bcf755565b600081815260018301602052604081205461177357508154600181810184556000848152602080822090930184905584548482528286019093526040902091909155611155565b506000611155565b8280548282559060005260206000209060030160049004810192821561182c5791602002820160005b838211156117f75783356001600160401b031683826101000a8154816001600160401b0302191690836001600160401b0316021790555092602001926008016020816007010492830192600103026117a4565b801561182a5782816101000a8154906001600160401b0302191690556008016020816007010492830192600103026117f7565b505b50611838929150611872565b5090565b50805461184890611f65565b6000825580601f10611858575050565b601f016020900490600052602060002090810190610eb891905b5b808211156118385760008155600101611873565b80356001600160401b038116811461189e57600080fd5b919050565b634e487b7160e01b600052604160045260246000fd5b604051606081016001600160401b03811182821017156118db576118db6118a3565b60405290565b604051601f8201601f191681016001600160401b0381118282101715611909576119096118a3565b604052919050565b803563ffffffff8116811461189e57600080fd5b8015158114610eb857600080fd5b600080600083850360e081121561194957600080fd5b61195285611887565b93506020850135925060a0603f198201121561196d57600080fd5b5060405160a081018181106001600160401b0382111715611990576119906118a3565b80604052506119a160408601611911565b81526119af60608601611887565b60208201526119c060808601611887565b604082015260a08501356119d381611925565b606082015260c094909401356080850152509093909250565b803561ffff8116811461189e57600080fd5b600060208284031215611a1057600080fd5b6114bd826119ec565b600060208284031215611a2b57600080fd5b5035919050565b600060208083528351808285015260005b81811015611a5f57858101830151858201604001528201611a43565b506000604082860101526040601f19601f8301168501019250505092915050565b6001600160a01b0381168114610eb857600080fd5b600080600060408486031215611aaa57600080fd5b83356001600160401b0380821115611ac157600080fd5b818601915086601f830112611ad557600080fd5b813581811115611ae457600080fd5b876020828501011115611af657600080fd5b60209283019550935050840135611b0c81611a80565b809150509250925092565b60006020808385031215611b2a57600080fd5b82356001600160401b0380821115611b4157600080fd5b818501915085601f830112611b5557600080fd5b813581811115611b6757611b676118a3565b611b75848260051b016118e1565b81815284810192506060918202840185019188831115611b9457600080fd5b938501935b82851015611bf05780858a031215611bb15760008081fd5b611bb96118b9565b8535611bc481611a80565b81528587013587820152604080870135611bdd81611925565b9082015284529384019392850192611b99565b50979650505050505050565b60008060408385031215611c0f57600080fd5b8235611c1a81611a80565b915060208301356001600160401b03811115611c3557600080fd5b83016101208186031215611c4857600080fd5b809150509250929050565b60008083601f840112611c6557600080fd5b5081356001600160401b03811115611c7c57600080fd5b6020830191508360208260051b850101111561154c57600080fd5b600080600060408486031215611cac57600080fd5b8335611cb781611a80565b925060208401356001600160401b03811115611cd257600080fd5b611cde86828701611c53565b9497909650939450505050565b600060208284031215611cfd57600080fd5b81356114bd81611a80565b600080600060408486031215611d1d57600080fd5b83356001600160401b03811115611d3357600080fd5b611d3f86828701611c53565b9094509250611d52905060208501611887565b90509250925092565b600080600060608486031215611d7057600080fd5b8335611d7b81611a80565b9250611d8960208501611887565b9150611d52604085016119ec565b600060208284031215611da957600080fd5b6114bd82611887565b6020808252825182820181905260009190848201906040850190845b81811015611df35783516001600160401b031683529284019291840191600101611dce565b50909695505050505050565b6001600160a01b0385168152610100602080830182905285546000928401918291611e2e818490815260200190565b60008a815260209020909450925060005b81600382011015611e8d5783546001600160401b038082168752604082811c821686890152608083811c9092169088015260c09190911c606087015290940193600190930192600401611e3f565b92549281811015611eac576001600160401b0384168552938201936001015b81811015611ecc57604084901c6001600160401b03168552938201936001015b81811015611eec57608084901c6001600160401b03168552938201936001015b81811015611f005760c084901c8552938201935b50505050604083018590529050611f5c606083018463ffffffff815116825260208101516001600160401b0380821660208501528060408401511660408501525050606081015115156060830152608081015160808301525050565b95945050505050565b600181811c90821680611f7957607f821691505b602082108103611f9957634e487b7160e01b600052602260045260246000fd5b50919050565b81835281816020850137506000828201602090810191909152601f909101601f19169091010190565b604081526000611fdc604083018587611f9f565b905060018060a01b0383166020830152949350505050565b634e487b7160e01b600052603260045260246000fd5b634e487b7160e01b600052601160045260246000fd5b6000600182016120325761203261200a565b5060010190565b6000808335601e1984360301811261205057600080fd5b8301803591506001600160401b0382111561206a57600080fd5b60200191503681900382131561154c57600080fd5b60006020828403121561209157600080fd5b81516114bd81611925565b6000808335601e198436030181126120b357600080fd5b8301803591506001600160401b038211156120cd57600080fd5b6020019150600581901b360382131561154c57600080fd5b8183526000602080850194508260005b85811015612121576001600160401b0361210e83611887565b16875295820195908201906001016120f5565b509495945050505050565b60006101208083526121418184018b8d611f9f565b9050828103602084015261215681898b6120e5565b9050828103604084015261216b818789611f9f565b91505083606083015263ffffffff61218284611911565b16608083015261219460208401611887565b6001600160401b0380821660a0850152806121b160408701611887565b1660c0850152505060608301356121c781611925565b151560e08301526080929092013561010090910152979650505050505050565b6060815260006121fb606083018688611f9f565b6001600160a01b03949094166020830152506040015292915050565b6000808335601e1984360301811261222e57600080fd5b83016020810192503590506001600160401b0381111561224d57600080fd5b80360382131561154c57600080fd5b60608082528181018590526000906080808401600588901b850182018985805b8b81101561232657888403607f190185528235368e9003607e190181126122a1578283fd5b8d016122ad8180612217565b8887526122bd8988018284611f9f565b91505060206122ce81840184612217565b888403838a01526122e0848284611f9f565b9350505060406122f281850185612217565b898503838b0152612304858284611f9f565b958d0135998d019990995250509687019691955050929092019160010161227c565b5050506020860197909752505050506040015292915050565b6001600160401b0381811683821601908082111561235f5761235f61200a565b5092915050565b60008235607e1983360301811261237c57600080fd5b9190910192915050565b6001600160401b0384168152604060208201526000611f5c6040830184866120e5565b6000602082840312156123bb57600080fd5b81516114bd81611a80565b6001600160a01b0384168152604060208201819052600090611f5c9083018486611f9f565b6001600160401b0382811682821603908082111561235f5761235f61200a565b600080835461241981611f65565b60018281168015612431576001811461244657612475565b60ff1984168752821515830287019450612475565b8760005260208060002060005b8581101561246c5781548a820152908401908201612453565b50505082870194505b50929695505050505050565b818103818111156111555761115561200a565b601f82111561068b57600081815260208120601f850160051c810160208610156124bb5750805b601f850160051c820191505b818110156124da578281556001016124c7565b505050505050565b8181036124ed575050565b6124f78254611f65565b6001600160401b0381111561250e5761250e6118a3565b6125228161251c8454611f65565b84612494565b6000601f821160018114612556576000831561253e5750848201545b600019600385901b1c1916600184901b1784556125bb565b600085815260209020601f19841690600086815260209020845b838110156125905782860154825560019586019590910190602001612570565b50858310156125ae5781850154600019600388901b60f8161c191681555b50505060018360011b0184555b5050505050565b634e487b7160e01b600052603160045260246000fd5b81516001600160401b038111156125f1576125f16118a3565b6125ff8161251c8454611f65565b602080601f831160018114612634576000841561261c5750858301515b600019600386901b1c1916600185901b1785556124da565b600085815260208120601f198616915b8281101561266357888601518255948401946001909101908401612644565b50858210156126815787850151600019600388901b60f8161c191681555b5050505050600190811b01905550565b6000602082840312156126a357600080fd5b505191905056fea2646970667358221220a07deea8e9046af1807bbc44d5b39150543cb3f524005782725401447dbfecb764736f6c63430008130033",
  "linkReferences": {},
  "deployedLinkReferences": {}
}